:1000000019C033C032C031C0AFC02FC02EC02DC008
:100010002CC02BC02AC068C128C027C026C025C05C
:1000200024C023C0CEC221C0FBC21FC01EC01DC041
:100030001CC01BC011241FBECFEFD2E0DEBFCDBF5E
:1000400011E0A0E0B1E0E2EFFBE002C005900D920C
:10005000AE32B107D9F721E0AEE2B1E001C01D92A6
:10006000A733B207E1F792D0C2C5CACF84B1866088
:1000700084B985B1826085B98AB18AB98AB180674D
:100080008AB98BB180678BB90895F89418C02FEFA7
:1000900089E698E1215080409040E1F700C00000DF
:1000A0008BB180638BB92FEF89E698E121508040B6
:1000B0009040E1F700C000008BB18F7C8BB94A9B68
:1000C000E6CF4B9BE4CF8BB180638BB978940895D6
:1000D0008CE08093B800089594EA9093BC009091CE
:1000E000BC009923E4F796E49093BB0094E89093C6
:1000F000BC009091BC009923E4F78093BB0084E896
:100100008093BC008091BC008823E4F76093BB001F
:1001100084E88093BC008091BC008823E4F784E9E4
:100120008093BC000895E8E6F0E0808182608083DF
:10013000ECE6F0E0808184608083CADF65E08FE8D0
:10014000CBDF63E081E8C8DF68E084E8C5DF6FEFFC
:1001500080E9C2DF63E081E9BFDF60E082E9BCDF04
:1001600060E083E9B9DF08951F920F920FB60F92F6
:1001700011248F939F939BB180E489278BB99F9122
:100180008F910F900FBE0F901F9018956FDF2ED09C
:10019000E1D1C9DF789412C041E050E060E070E046
:1001A00081E090E030D0811170DF2FEF81EE94E09C
:1001B000215080409040E1F700C000004A9B13C0EE
:1001C000EBCF41E050E061E070E081E090E01BD0D7
:1001D00081115BDF2FEF81EE94E021508040904051
:1001E000E1F700C000004B99ECCFE8CF89E08093A5
:1001F000810080E496E0909389008093880082E0FB
:1002000080936F000895CF92DF92EF92FF920F9349
:100210001F93CF93DF93CDB7DEB7E2970FB6F89475
:10022000DEBF0FBECDBFF894E0E3F1E073836283DD
:10023000558344839C012F5F3F4F3183208321E00E
:10024000268310922F0110922E017894C12CD12C6C
:1002500076011FC02FEF39EFE0E021503040E04041
:10026000E1F700C000008C01065F1F4F012E000C5B
:10027000220B330B0C151D052E053F0528F480E0DD
:1002800091E082D181E021C02FEFC21AD20AE20AA6
:10029000F20A209136012111DDCF5F934F937F93B6
:1002A0006F939F938F938EE091E09F938F938E0136
:1002B0000F5F1F4F1F930F93C2D1C80165D10FB6B7
:1002C000F894DEBF0FBECDBF80E0E2960FB6F89483
:1002D000DEBF0FBECDBFDF91CF911F910F91FF9079
:1002E000EF90DF90CF9008951F920F920FB60F926C
:1002F00011248F939F93EF93FF9380912E01909100
:100300002F01019690932F0180932E01809130014F
:1003100090913101181619060CF005C18BB18F7E32
:100320008BB980913401909135018230910509F4A7
:1003300059C08330910509F4A7C0019709F0F3C0B3
:100340008091320190913301892B31F580912E01FA
:1003500090912F01892B31F080912E0190912F01E6
:100360000E9721F495B182E0892785B980912E01FD
:1003700090912F01883C910509F0D5C0E0E3F1E0B0
:10038000808191810197918380838FEF9FEF90937C
:100390002F0180932E01C7C080912E0190912F01D3
:1003A000892B31F080912E0190912F01409721F4FB
:1003B00095B182E0892785B980912E0190912F0116
:1003C000883C910509F0AFC0E0E3F1E080819181C4
:1003D0000197918380838FEF9FEF90932F018093FC
:1003E0002E01A1C08091320190913301892B31F50A
:1003F00080912E0190912F01892B31F080912E0157
:1004000090912F010C9721F495B182E0892785B94D
:1004100080912E0190912F01883C910509F083C0B5
:10042000E0E3F1E0808191810197918380838FEFF8
:100430009FEF90932F0180932E0175C080912E0124
:1004400090912F01892B31F080912E0190912F01F5
:10045000429721F495B182E0892785B980912E01D8
:1004600090912F01883C910509F05DC0E0E3F1E037
:10047000808191810197918380838FEF9FEF90938B
:100480002F0180932E014FC0809132019091330152
:10049000892B29F580912E0190912F01892B31F024
:1004A00080912E0190912F01059721F495B182E062
:1004B000892785B980912E0190912F01883C910563
:1004C00091F5E0E3F1E08081918101979183808350
:1004D0008FEF9FEF90932F0180932E0124C0809186
:1004E0002E0190912F01892B31F080912E01909156
:1004F0002F01499721F495B182E0892785B9809130
:100500002E0190912F01883C910569F4E0E3F1E020
:10051000808191810197918380838FEF9FEF9093EA
:100520002F0180932E018091300190913101892B10
:1005300041F48BB180618BB985B1826085B910922D
:100540003601FF91EF919F918F910F900FBE0F9009
:100550001F90189587E68093C4001092C500E1ECC7
:10056000F0E08081886D8083E2ECF0E0808186603D
:10057000808308959091C00095FFFCCF95B1946061
:1005800095B98093C60008950F931F93CF93DF937F
:100590008C01C0E0D0E006C0F801EC0FFD1F8081A7
:1005A000E9DF2196F80101900020E9F73197E01B7F
:1005B000F10BCE17DF0780F3DF91CF911F910F91E1
:1005C00008951F920F920FB60F9211242F933F930D
:1005D0004F935F936F937F938F939F93AF93BF934B
:1005E000EF93FF938091C600813649F441E050E0DB
:1005F00060E070E084E190E006DE811146DDFF916D
:10060000EF91BF91AF919F918F917F916F915F918A
:100610004F913F912F910F900FBE0F901F90189503
:100620001F920F920FB60F9211248F9385B18B7F7B
:1006300085B98F910F900FBE0F901F901895AEE067
:10064000B0E0E4E2F3E0AAC20D891E8986E08C8363
:100650001A8309838FEF9FE79E838D83AE01475EE8
:100660005F4F6F89788DCE01019608D0EF81F885B4
:10067000E00FF11F10822E96E4E0ACC2ABE0B0E0D8
:10068000E3E4F3E07DC26C017B018A01FC01178287
:100690001682838181FFBFC1CE0101963C01F60124
:1006A0009381F70193FD859193FF81917F018823C9
:1006B00009F4ADC1853239F493FD859193FF8191A1
:1006C0007F01853221F4B60190E0C0D1E8CF912CB2
:1006D000212C312CFFE1F315D8F08B3279F038F46E
:1006E000803279F08332A1F4232D20611DC08D3238
:1006F00061F0803369F4232D216016C0832D826060
:10070000382EE32DE4603E2E2AC0F32DF8601DC084
:1007100037FC2DC020ED280F2A3040F08E32B9F47E
:1007200036FC75C1232D2064322E19C036FE06C05A
:100730008AE0989E200D1124922E11C0EAE02E9E90
:10074000200D1124222EF32DF0623F2E08C08C368E
:1007500021F4832D8068382E02C0883641F4F701D9
:1007600093FD859193FF81917F018111B3CF982FE4
:100770009F7D9554933028F40C5F1F4F9FE399831E
:100780000DC0833631F0833771F0833509F055C0E1
:1007900020C0F801808189830E5F1F4F88248394D5
:1007A000912C530112C02801F2E04F0E511CF801A8
:1007B000A080B18036FE03C0692D70E002C06FEFEB
:1007C0007FEFC50138D14C018201F32DFF773F2E19
:1007D00015C0280122E0420E511CF801A080B18012
:1007E00036FE03C0692D70E002C06FEF7FEFC501D8
:1007F00017D14C01F32DF0683F2E820133FC19C054
:10080000822D90E088169906A0F4B60180E290E06F
:100810001DD12A94F5CFF50137FC859137FE8191E2
:100820005F01B60190E012D121102A9421E0821AD2
:1008300091088114910479F7E1C0843611F089366A
:1008400039F5F80137FE07C060817181828193819B
:100850000C5F1F4F08C060817181072E000C880B50
:10086000990B0E5F1F4FF32DFF763F2E97FF09C0A8
:1008700090958095709561957F4F8F4F9F4FF06851
:100880003F2E2AE030E0A3011DD1882E861844C0F7
:10089000853731F4232D2F7EB22E2AE030E025C09B
:1008A000932D997FB92E8F36C1F018F4883579F0E1
:1008B000AEC0803719F0883721F0A9C0E92FE06178
:1008C000BE2EB4FE0DC0FB2DF460BF2E09C034FE59
:1008D0000AC0292F2660B22E06C028E030E005C0ED
:1008E00020E130E002C020E132E0F801B7FE07C0AD
:1008F00060817181828193810C5F1F4F06C060818E
:10090000718180E090E00E5F1F4FA301DBD0882E45
:100910008618FB2DFF773F2E36FE0DC0232D2E7F30
:10092000A22E891458F434FE0BC032FC09C0832D6A
:100930008E7EA82E05C0B82CA32C03C0B82C01C0F5
:10094000B92CA4FE0FC0FE01E80DF11D808180339B
:1009500021F49A2D997EA92E09C0A2FE06C0B39457
:10096000B39404C08A2D867809F0B394A3FC10C018
:10097000A0FE06C0B21480F4280C922C9B180DC067
:10098000B21458F4B60180E290E060D0B394F8CF8E
:10099000B21418F42B1802C0982C212CA4FE0FC0FE
:1009A000B60180E390E052D0A2FE16C0A1FC03C0C5
:1009B00088E790E002C088E590E0B6010CC08A2D7F
:1009C000867851F0A1FE02C08BE201C080E2A7FC54
:1009D0008DE2B60190E03AD0891430F4B60180E39C
:1009E00090E034D09A94F8CF8A94F301E80DF11D89
:1009F0008081B60190E02AD08110F6CF222009F440
:100A00004ECEB60180E290E021D02A94F7CFF601D5
:100A10008681978102C08FEF9FEF2B96E2E1CCC0D9
:100A2000FC010590615070400110D8F780959095B9
:100A30008E0F9F1F0895FC016150704001900110BE
:100A4000D8F7809590958E0F9F1F08950F931F9351
:100A5000CF93DF93FB01238121FD03C08FEF9FEF35
:100A60002CC022FF16C04681578124813581421750
:100A7000530744F4A081B1819D012F5F3F4F318323
:100A800020838C93268137812F5F3F4F37832683C6
:100A900014C08B01EC01FB010084F185E02D099568
:100AA000892BE1F6D80116968D919C9117970196A6
:100AB00017969C938E931697CE01DF91CF911F913D
:100AC0000F910895FA01AA27283051F1203181F1C0
:100AD000E8946F936E7F6E5F7F4F8F4F9F4FAF4F46
:100AE000B1E03ED0B4E03CD0670F781F891F9A1F59
:100AF000A11D680F791F8A1F911DA11D6A0F711D0D
:100B0000811D911DA11D20D009F468943F912AE018
:100B1000269F11243019305D3193DEF6CF01089500
:100B2000462F4770405D4193B3E00FD0C9F7F6CF31
:100B3000462F4F70405D4A3318F0495D31FD4052F9
:100B4000419302D0A9F7EACFB4E0A695979587958F
:100B500077956795BA95C9F700976105710508956E
:100B60009B01AC010A2E069457954795379527951A
:100B7000BA95C9F7620F731F841F951FA01D0895B2
:100B80002F923F924F925F926F927F928F929F929D
:100B9000AF92BF92CF92DF92EF92FF920F931F938B
:100BA000CF93DF93CDB7DEB7CA1BDB0B0FB6F8943C
:100BB000DEBF0FBECDBF09942A88398848885F847C
:100BC0006E847D848C849B84AA84B984C884DF80ED
:100BD000EE80FD800C811B81AA81B981CE0FD11DD1
:100BE0000FB6F894DEBF0FBECDBFED010895F894A7
:020BF000FFCF35
:100BF200534552564F5F54494D454F555400534546
:100C020052564F5F4F4B3A20256420535445505360
:0E0C1200202D202564202D2025640A0D0000D1
:00000001FF
