:1000000019C028C027C026C081C024C023C022C078
:1000100021C020C01FC01EC01DC01CC01BC01AC0F4
:1000200019C018C0F1C016C0FFC014C013C012C060
:1000300011C010C011241FBECFEFD2E0DEBFCDBF74
:1000400021E0A0E0B1E001C01D92A130B207E1F7CC
:1000500077D0F9C0D5CF84B1866084B985B182608C
:1000600085B98AB18AB98AB180678AB98BB180674C
:100070008BB908958CE08093B800089594EA90932A
:10008000BC009091BC009923E4F796E49093BB00E8
:1000900094E89093BC009091BC009923E4F780937E
:1000A000BB0084E88093BC008091BC008823E4F707
:1000B0006093BB0084E88093BC008091BC008823DF
:1000C000E4F784E98093BC000895E8E6F0E08081DD
:1000D00082608083ECE6F0E0808184608083CADF08
:1000E00065E08FE8CBDF63E081E8C8DF68E084E8A3
:1000F000C5DF64E680E9C2DF65E081E9BFDF60E07B
:1001000082E9BCDF60E083E9B9DF08951F920F92B6
:100110000FB60F9211248F939F93329B0AC09BB10D
:1001200080E289278BB989E099E0909389008093D8
:1001300088009F918F910F900FBE0F901F90189580
:100140008ADF3FD051D0C1DF7894809100018236A0
:1001500059F0863609F58FEE98E0909389008093E8
:1001600088001092000118C083E299E09093890002
:1001700080938800109200010FC08FEE98E090935A
:100180008900809388002FEF81EE94E02150804019
:100190009040E1F700C000004A99EFCF0FC083E222
:1001A00099E090938900809388002FEF81EE94E08E
:1001B000215080409040E1F700C000004B99EFCF04
:1001C000C4CF80EC8093800083E18093810089E03C
:1001D00099E0909389008093880084EC99E0909353
:1001E000870080938600089587E68093C40010926C
:1001F000C500E1ECF0E08081886D8083E2ECF0E006
:1002000080818660808308951F920F920FB60F92AF
:1002100011248F938091C600809300018F910F90DD
:100220000FBE0F901F9018951F920F920FB60F924E
:1002300011248F9385B18B7F85B98F910F900FBE5D
:0A0240000F901F901895F894FFCF5F
:00000001FF
