:1000000019C033C032C031C0D7C02FC02EC02DC0E0
:100010002CC02BC02AC029C028C027C026C025C09C
:1000200024C023C020C421C02EC41FC01EC01DC0B8
:100030001CC01BC011241FBECFEFD2E0DEBFCDBF5E
:1000400011E0A0E0B1E0E2EEFDE002C005900D920B
:10005000A031B107D9F721E0A0E1B1E001C01D92C4
:10006000A332B207E1F701D1BAC6CACF84B1866024
:1000700084B985B1826085B98AB18AB98AB180674D
:100080008AB98BB180678BB908958CE08093B800F2
:10009000089594EA9093BC009091BC009923E4F7F2
:1000A00096E49093BB0094E89093BC009091BC00C0
:1000B0009923E4F78093BB0084E88093BC0080918F
:1000C000BC008823E4F784EA8093BC008091BC00E4
:1000D0008823E4F787E48093BB0084E88093BC0026
:1000E0008091BC008823E4F784E88093BC00809171
:1000F000BC008823E4F78091BB0094E99093BC0096
:10010000089594EA9093BC009091BC009923E4F781
:1001100096E49093BB0094E89093BC009091BC004F
:100120009923E4F78093BB0084E88093BC0080911E
:10013000BC008823E4F76093BB0084E88093BC0094
:100140008091BC008823E4F784E98093BC00089583
:10015000E8E6F0E0808182608083ECE6F0E0808178
:100160008460808392DF65E08FE8CBDF6FE182E817
:10017000C8DF63E081E8C5DF68E084E8C2DF66E9E4
:1001800080E9BFDF60E081E9BCDF60E082E9B9DFE0
:1001900060E083E9B6DF0895CF93DF938DE879DFE0
:1001A000C82FD0E08EE875DF90E0982F88278C0F5D
:1001B0009D1FDF91CF9108951F920F920FB60F925E
:1001C00011242F933F934F935F936F937F938F935C
:1001D0009F93AF93BF93EF93FF9380911C019091F6
:1001E0001D01019789F160911E0170911F0180919D
:1001F00020019091210120E030E040EC5FE301D547
:10020000882354F0809110019091110101969093F0
:1002100011018093100118C060911E0170911F019F
:10022000809120019091210120E030E040EC5FE3DB
:100230009ED318164CF080911001909111010197F6
:100240009093110180931001FF91EF91BF91AF91B5
:100250009F918F917F916F915F914F913F912F91DE
:100260000F900FBE0F901F901895CF93DF93CDB7CF
:10027000DEB7C759D1400FB6F894DEBF0FBECDBF71
:10028000F5DEC5D2D6D264DF789420911201309188
:1002900013018091100190911101A901481B590B84
:1002A000CF56DE4F59834883C159D140BA01550F0B
:1002B000880B990BF6D36B017C01209118013091CA
:1002C000190140911A0150911B01ECD2809000015C
:1002D00090900101A0900201B0900301A50194014A
:1002E0004AD3CD56DE4F688379838A839B83C35973
:1002F000D140A5019401C701B60187D42091140112
:10030000309115014091160150911701CCD24B014B
:100310005C01609314017093150180931601909312
:10032000170120910C0130910D0140910E01509167
:100330000F01C701B60169D42B013C0120910801CE
:100340003091090140910A0150910B01CD56DE4FC9
:10035000688179818A819B81C359D14056D49B01A0
:10036000AC01C301B2019FD22B013C0120910401D9
:10037000309105014091060150910701C501B4017A
:1003800044D49B01AC01C301B2018DD24B015C018D
:1003900020E030E048EC52E434D4882344F00F2EBF
:1003A000812C912CF8ECAF2EF2E4BF2EF02D20E042
:1003B00030E048EC52ECC501B401D9D2181644F033
:1003C0000F2E812C912CF8ECAF2EF2ECBF2EF02DDD
:1003D0002AE037ED43EA5BE3C501B40116D420E01F
:1003E00030E040EC5FE35FD2EED1C0921801D092D2
:1003F0001901E0921A01F0921B018FED9BEA01971F
:10040000F1F700C0000080912201833671F1863639
:1004100021F0823609F0AFC114C0CF56DE4FA8815B
:10042000B981C159D140AB2B49F48091120190910F
:1004300013010496909313018093120110922201EC
:100440009AC1CF56DE4FE881F981C159D140EF2BD7
:1004500049F4809112019091130104979093130134
:10046000809312011092220186C181E090E0909366
:100470001D0180931C01FE01319688ECDF011D9265
:100480008A95E9F7E45DFE4F84E6DF01282F1D928F
:100490002A95E9F7E456F109DF011D928A95E9F7FB
:1004A000A12CB12C912C812CA0C06DEC7CEC8CEC9F
:1004B0009FE389D1EE24E394F12C25C0F701319715
:1004C000EE0FFF1F21E030E02C0F3D1FE20FF31F66
:1004D0000081118161DE800F911F96958795F7014C
:1004E000EE0FFF1F41E050E04C0F5D1FE40FF51FC2
:1004F000918380838FE39CE90197F1F700C00000AE
:100500009FEFE91AF90AA4E6EA16F104BCF260E0EA
:1005100070E080EC9FE357D101E010E05FC0F8018C
:100520003197EE0FFF1F21E030E02C0F3D1FE20F4F
:10053000F31FC080D1808C2D8CD18D2D8AD1F801F4
:10054000EE0FFF1F41E050E04C0F5D1FE40FF51F61
:10055000E080F1808E2D7DD18F2D7BD1CE14DF04F4
:10056000E0F4F8013196EE0FFF1F81E090E08C0F70
:100570009D1FE80FF91F808191818E159F0568F4FA
:10058000E82DF0E0EE0FFF1FADE2B1E0AC0FBD1FB4
:10059000EA0FFB1FF182E0828394EC14FD04E0F487
:1005A000F8013196EE0FFF1F21E030E02C0F3D1FC8
:1005B000E20FF31F80819181E816F90668F4E92DB6
:1005C000F0E0EE0FFF1F49EC50E04C0F5D1FE40F11
:1005D000F51FF182E08293940F5F1F4F04361105DF
:1005E0000CF49DCF5FEFA51AB50A87E0A816B104F9
:1005F0000CF45BCF612C712C412C512CB0E0A0E0AD
:10060000CD56DE4F1882C359D140C956DE4F1882ED
:10061000C759D140212C312C38C0C301880F991FF4
:10062000EDE2F1E0EC0FFD1F8E0F9F1FFC01A0809B
:10063000B1802A2D3B2D40E050E060E070E080E08A
:1006400090E0A42CB52CCB2EDA2ECD56DE4FE880D0
:10065000C359D140C956DE4FF880C759D140022D49
:10066000132DB4D3422E532EB42FA52FCD56DE4FCB
:100670006883C359D140C956DE4F7883C759D140EA
:10068000282E392EFFEF6F1A7F0A882D90E068160A
:1006900079061CF280E090E0612C712C0DC09C0169
:1006A000220F331F49EC50E04C0F5D1F240F351F04
:1006B000F901608071800196292D30E0821793073F
:1006C00074F3A82CB12CC12CD12CE12CF12C00E01E
:1006D00010E0242D352D4B2F5A2FCD56DE4F68813B
:1006E000C359D140C956DE4F7881C759D140822DB8
:1006F000932D04D3A22EB32EC42ED52EE62EF72E84
:10070000082F192F692D70E0C301E2D2AB01242F0D
:10071000352F40E050E060E070E080E090E056D39C
:1007200001E038D3132FD22E622F80E9EADCE12ECC
:10073000612F81E9E6DC01E010E014C08D2D89D045
:100740008E2D87D0F801EE0FFF1F21E030E02C0F37
:100750003D1FE20FF31FF18080817BD08F2D79D078
:100760000F5F1F4F043611054CF310921D011092BC
:100770001C01109222014A9B11C0CF56DE4F4881C6
:100780005981C159D140452B49F480911201909172
:100790001301049790931301809312014B9B75CD25
:1007A000CF56DE4F88819981C159D140892B09F0FC
:1007B0006CCD8091120190911301049690931301D6
:1007C0008093120162CDCF92DF92EF92FF926B0184
:1007D0007C0120E030E04AEF52E417D29B01AC01EB
:1007E00060E070E48CE195E45DD02DD170938900D8
:1007F00060938800C0921E01D0921F01E0922001F8
:10080000F0922101FF90EF90DF90CF90089580EC5F
:100810008093800083E18093810060E070E080EC51
:100820009FE3D1DF84EC99E090938700809386006A
:10083000089587E68093C4001092C500E1ECF0E0D3
:100840008081886D8083E2ECF0E080818660808327
:1008500008959091C00095FFFCCF95B1946095B933
:100860008093C60008951F920F920FB60F92112425
:100870008F938091C600809322018F910F900FBEBD
:100880000F901F9018951F920F920FB60F92112480
:100890008F9385B18B7F85B98F910F900FBE0F908D
:1008A0001F9018955058BB27AA270ED070C161D150
:1008B00030F066D120F031F49F3F11F41EF456C1A0
:1008C0000EF4E095E7FB4CC1E92F72D180F3BA1723
:1008D000620773078407950718F071F49EF58AC1C3
:1008E0000EF4E0950B2EBA2FA02D0B01B90190014B
:1008F0000C01CA01A0011124FF27591B99F0593F8F
:1009000050F4503E68F11A16F040A22F232F342FD6
:100910004427585FF3CF469537952795A795F04024
:100920005395C9F77EF41F16BA0B620B730B840B39
:10093000BAF09150A1F0FF0FBB1F661F771F881FF1
:10094000C2F70EC0BA0F621F731F841F48F4879549
:1009500077956795B795F7959E3F08F0B3CF939538
:10096000880F08F09927EE0F979587950895D4D0B2
:1009700008F481E008950CD00AC102D140F0F9D00A
:1009800030F021F45F3F19F0EBC0511134C1EEC0DB
:100990000FD198F39923C9F35523B1F3951B550B48
:1009A000BB27AA2762177307840738F09F5F5F4F42
:1009B000220F331F441FAA1FA9F333D00E2E3AF083
:1009C000E0E830D091505040E695001CCAF729D09D
:1009D000FE2F27D0660F771F881FBB1F26173707EC
:1009E0004807AB07B0E809F0BB0B802DBF01FF271C
:1009F00093585F4F2AF09E3F510568F0B1C0FBC08D
:100A00005F3FECF3983EDCF3869577956795B79555
:100A1000F7959F5FC9F7880F911D9695879597F970
:100A20000895E1E0660F771F881FBB1F62177307E9
:100A30008407BA0720F0621B730B840BBA0BEE1FFE
:100A400088F7E0950895BCD088F09F5790F0B92FB3
:100A50009927B751A0F0D1F0660F771F881F991F13
:100A60001AF0BA95C9F712C0B13081F0C3D0B1E025
:100A70000895C0C0672F782F8827B85F39F0B93F35
:100A8000CCF3869577956795B395D9F73EF4909515
:100A90008095709561957F4F8F4F9F4F0895E89493
:100AA00009C097FB3EF490958095709561957F4FB6
:100AB0008F4F9F4F9923A9F0F92F96E9BB27939564
:100AC000F695879577956795B795F111F8CFFAF474
:100AD000BB0F11F460FF1BC06F5F7F4F8F4F9F4FA5
:100AE00016C0882311F096E911C0772321F09EE803
:100AF000872F762F05C0662371F096E8862F70E069
:100B000060E02AF09A95660F771F881FDAF7880F42
:100B10009695879597F90895990F0008550FAA0B98
:100B2000E0E8FEEF16161706E807F907C0F0121600
:100B30001306E407F50798F0621B730B840B950B03
:100B400039F40A2661F0232B242B252B21F4089558
:100B50000A2609F4A140A6958FEF811D811D0895F5
:100B600097F99F6780E870E060E008959FEF80EC60
:100B7000089500240A941616170618060906089503
:100B800000240A9412161306140605060895092E69
:100B90000394000C11F4882352F0BB0F40F4BF2BD8
:100BA00011F460FF04C06F5F7F4F8F4F9F4F089518
:100BB00057FD9058440F551F59F05F3F71F047950E
:100BC000880F97FB991F61F09F3F79F087950895F3
:100BD000121613061406551FF2CF4695F1DF08C012
:100BE000161617061806991FF1CF8695710561052F
:100BF00008940895E894BB2766277727CB0197F9D7
:100C000008958ADF08F48FEF08950BD0C0CFB1DFCD
:100C100028F0B6DF18F0952309F0A2CFA7CF112452
:100C2000EACFC6DFA0F3959FD1F3950F50E0551F93
:100C3000629FF001729FBB27F00DB11D639FAA2731
:100C4000F00DB11DAA1F649F6627B00DA11D661F80
:100C5000829F2227B00DA11D621F739FB00DA11DA1
:100C6000621F839FA00D611D221F749F3327A00D5B
:100C7000611D231F849F600D211D822F762F6A2FF7
:100C800011249F5750408AF0E1F088234AF0EE0F7C
:100C9000FF1FBB1F661F771F881F91505040A9F789
:100CA0009E3F510570F05CCFA6CF5F3FECF3983EBE
:100CB000DCF3869577956795B795F795E7959F5FF0
:100CC000C1F7FE2B880F911D9695879597F908958A
:100CD000AA1BBB1B51E107C0AA1FBB1FA617B70762
:100CE00010F0A61BB70B881F991F5A95A9F780957E
:100CF0009095BC01CD010895689401C0E8948F924D
:100D00009F92CF93DF9305D0DF91CF919F908F90EB
:100D1000089588249924F401E401B0E41B2ED40141
:100D20009D158E049F04E007F10738F4FC014B0188
:100D3000CA01B901AD019E011694220F331F441F51
:100D4000551F661F771F881F991F881C991CEE1F4F
:100D5000FF1FCC1FDD1FAA1FBB1F8A149B04EC05BD
:100D6000FD05CE05DF05A007B10748F08A189B08EE
:100D7000EC09FD09CE09DF09A00BB10B21601A9423
:100D8000E1F62EF49401AF01BE01CD01000C0895EF
:100D900097FB10F8169400080F93083098F008504D
:100DA000232F342F452F562F672F782F892F902DE3
:100DB000F4CF0594979587957795679557954795BF
:100DC000379527950A95AAF70F9108952A0D3B1D8F
:100DD0004C1D5D1D6E1D7F1D801F911F0895F89491
:020DE000FFCF43
:100DE2000AD7233C00004842CDCCCC3C00007041E5
:00000001FF
