:1000000019C033C032C031C08FC02FC02EC02DC028
:100010002CC02BC02AC029C028C027C026C025C09C
:1000200024C023C009C221C017C21FC01EC01DC0EA
:100030001CC01BC011241FBECFEFD2E0DEBFCDBF5E
:1000400011E0A0E0B1E0E6EAF8E002C005900D9210
:10005000A031B107D9F721E0A0E1B1E001C01D92C4
:10006000A132B207E1F7B3D01CC4CACF84B1866015
:1000700084B985B1826085B98AB18AB98AB180674D
:100080008AB98BB180678BB908958CE08093B800F2
:10009000089594EA9093BC009091BC009923E4F7F2
:1000A00096E49093BB0094E89093BC009091BC00C0
:1000B0009923E4F78093BB0084E88093BC0080918F
:1000C000BC008823E4F76093BB0084E88093BC0005
:1000D0008091BC008823E4F784E98093BC000895F4
:1000E000E8E6F0E0808182608083ECE6F0E08081E9
:1000F00084608083CADF65E08FE8CBDF6FE182E850
:10010000C8DF63E081E8C5DF68E084E8C2DF66E954
:1001100080E9BFDF60E081E9BCDF60E082E9B9DF50
:1001200060E083E9B6DF08951F920F920FB60F9239
:1001300011242F933F934F935F936F937F938F93EC
:100140009F93AF93BF93EF93FF9360911C017091C6
:100150001D0180911E0190911F0120E030E040ECD4
:100160005FE338D3882354F08091100190911101FE
:100170000196909311018093100118C060911C01A9
:1001800070911D0180911E0190911F0120E030E0CF
:1001900040EC5FE3D5D118164CF08091100190919E
:1001A000110101979093110180931001FF91EF913C
:1001B000BF91AF919F918F917F916F915F914F917F
:1001C0003F912F910F900FBE0F901F901895CF93D6
:1001D000DF9300D000D000D0CDB7DEB747DF0AD123
:1001E0001BD17EDF789463E373E383EB9FE3DED080
:1001F0002091120130911301809110019091110111
:10020000281B390B3E832D83B901330F880B990BC3
:1002100031D26B017C01209118013091190140917C
:100220001A0150911B0127D180900001909001018B
:10023000A0900201B0900301A501940185D12B018A
:100240003C01A5019401C701B601C8D22091140157
:100250003091150140911601509117010DD14B01BC
:100260005C016093140170931501809316019093C3
:10027000170120910C0130910D0140910E01509118
:100280000F01C701B601AAD269837A838B839C834D
:10029000209108013091090140910A0150910B0110
:1002A000C301B2019BD29B01AC0169817A818B8130
:1002B0009C81E2D02B013C01209104013091050189
:1002C0004091060150910701C501B40187D29B01FD
:1002D000AC01C301B201D0D04B015C0120E030E0A1
:1002E00048EC52E477D2882344F00F2E812C912CD5
:1002F000F8ECAF2EF2E4BF2EF02D20E030E048EC19
:1003000052ECC501B4011CD1181644F00F2E812CFB
:10031000912CF8ECAF2EF2ECBF2EF02D2AE037ED49
:1003200043EA5BE3C501B40159D220E030E040EC80
:100330005FE3A2D03BD0C0921801D0921901E092A5
:100340001A01F0921B018FED9BEA0197F1F700C0B3
:100350000000809120018336F1F0803721F0823651
:1003600009F046CF10C02D813E81232B49F48091A6
:10037000120190911301049690931301809312013E
:100380001092200135CF63E373E383EB9FE30ED03C
:10039000109220012DCF8BB18F7D8BB96DEC7CEC51
:1003A0008CEC9FE303D01092200122CFCF92DF92FA
:1003B000EF92FF926B017C0120E030E04AEF52E4C3
:1003C0000DD29B01AC0160E070E48CE195E453D068
:1003D00023D17093890060938800C0921C01D09251
:1003E0001D01E0921E01F0921F01FF90EF90DF903F
:1003F000CF90089580EC8093800083E1809381000A
:1004000060E070E080EC9FE3D1DF84EC99E09093B2
:10041000870080938600089587E68093C400109239
:10042000C500E1ECF0E08081886D8083E2ECF0E0D3
:1004300080818660808308951F920F920FB60F927D
:1004400011248F938091C600809320018F910F908B
:100450000FBE0F901F9018951F920F920FB60F921C
:1004600011248F9385B18B7F85B98F910F900FBE2B
:100470000F901F9018955058BB27AA270ED070C117
:1004800061D130F066D120F031F49F3F11F41EF4B9
:1004900056C10EF4E095E7FB4CC1E92F72D180F311
:1004A000BA17620773078407950718F071F49EF571
:1004B0008AC10EF4E0950B2EBA2FA02D0B01B901C5
:1004C00090010C01CA01A0011124FF27591B99F0CA
:1004D000593F50F4503E68F11A16F040A22F232FD6
:1004E000342F4427585FF3CF469537952795A79526
:1004F000F0405395C9F77EF41F16BA0B620B730BCD
:10050000840BBAF09150A1F0FF0FBB1F661F771F3D
:10051000881FC2F70EC0BA0F621F731F841F48F4F2
:10052000879577956795B795F7959E3F08F0B3CF78
:100530009395880F08F09927EE0F97958795089562
:10054000D4D008F481E008950CD00AC102D140F063
:10055000F9D030F021F45F3F19F0EBC0511134C1F4
:10056000EEC00FD198F39923C9F35523B1F3951B2E
:10057000550BBB27AA2762177307840738F09F5FC4
:100580005F4F220F331F441FAA1FA9F333D00E2E33
:100590003AF0E0E830D091505040E695001CCAF7A0
:1005A00029D0FE2F27D0660F771F881FBB1F261765
:1005B00037074807AB07B0E809F0BB0B802DBF0138
:1005C000FF2793585F4F2AF09E3F510568F0B1C056
:1005D000FBC05F3FECF3983EDCF38695779567951B
:1005E000B795F7959F5FC9F7880F911D96958795E9
:1005F00097F90895E1E0660F771F881FBB1F621708
:1006000073078407BA0720F0621B730B840BBA0BC5
:10061000EE1F88F7E0950895BCD088F09F5790F0C2
:10062000B92F9927B751A0F0D1F0660F771F881F17
:10063000991F1AF0BA95C9F712C0B13081F0C3D032
:10064000B1E00895C0C0672F782F8827B85F39F0D0
:10065000B93FCCF3869577956795B395D9F73EF476
:1006600090958095709561957F4F8F4F9F4F08951E
:10067000E89409C097FB3EF490958095709561953C
:100680007F4F8F4F9F4F9923A9F0F92F96E9BB27F2
:100690009395F695879577956795B795F111F8CF6E
:1006A000FAF4BB0F11F460FF1BC06F5F7F4F8F4FD9
:1006B0009F4F16C0882311F096E911C0772321F0CF
:1006C0009EE8872F762F05C0662371F096E8862F67
:1006D00070E060E02AF09A95660F771F881FDAF7BE
:1006E000880F9695879597F90895990F0008550FEB
:1006F000AA0BE0E8FEEF16161706E807F907C0F0A8
:1007000012161306E407F50798F0621B730B840BAF
:10071000950B39F40A2661F0232B242B252B21F489
:1007200008950A2609F4A140A6958FEF811D811D29
:10073000089597F99F6780E870E060E008959FEF63
:1007400080EC089500240A94161617061806090668
:10075000089500240A941216130614060506089537
:10076000092E0394000C11F4882352F0BB0F40F4BF
:10077000BF2B11F460FF04C06F5F7F4F8F4F9F4FFF
:10078000089557FD9058440F551F59F05F3F71F081
:100790004795880F97FB991F61F09F3F79F08795E8
:1007A0000895121613061406551FF2CF4695F1DF71
:1007B00008C0161617061806991FF1CF8695710501
:1007C000610508940895E894BB2766277727CB0135
:1007D00097F908958ADF08F48FEF08950BD0C0CF02
:1007E000B1DF28F0B6DF18F0952309F0A2CFA7CF2C
:1007F0001124EACFC6DFA0F3959FD1F3950F50E007
:10080000551F629FF001729FBB27F00DB11D639FC2
:10081000AA27F00DB11DAA1F649F6627B00DA11D68
:10082000661F829F2227B00DA11D621F739FB00D0E
:10083000A11D621F839FA00D611D221F749F33277E
:10084000A00D611D231F849F600D211D822F762F17
:100850006A2F11249F5750408AF0E1F088234AF014
:10086000EE0FFF1FBB1F661F771F881F9150504060
:10087000A9F79E3F510570F05CCFA6CF5F3FECF328
:10088000983EDCF3869577956795B795F795E7954C
:100890009F5FC1F7FE2B880F911D9695879597F95D
:0608A0000895F894FFCF5B
:1008A6000AD7233C00004842CDCCCC3C0000704126
:00000001FF
