S01300006E504E505F4665656465722E737265630B
S113000019C033C032C031C00AC12FC02EC02DC0A8
S11300102CC02BC02AC029C028C027C026C025C098
S113002024C023C04EC421C05CC41FC01EC01DC058
S11300301CC01BC011241FBECFEFD2E0DEBFCDBF5A
S113004011E0A0E0B1E0EEE3FEE002C005900D9205
S1130050AC30B107D9F721E0ACE0B1E001C01D92AA
S1130060A332B207E1F734D1E8C6CACF84B18660BF
S113007084B985B1826085B98AB18AB98AB1806749
S11300808AB98BB180678BB90895F894F999FECF3A
S113009092BD81BD60BD8FB384608FBB8FB382601E
S11300A08FBB78940895F894F999FECF92BD81BDE1
S11300B08FB381608FBB789480B508958CE0809372
S11300C0B800089594EA9093BC009091BC009923E1
S11300D0E4F796E49093BB0094E89093BC0090916D
S11300E0BC009923E4F78093BB0084E88093BC00B0
S11300F08091BC008823E4F784EA8093BC0080915B
S1130100BC008823E4F787E48093BB0084E88093F1
S1130110BC008091BC008823E4F784E88093BC0091
S11301208091BC008823E4F78091BB0094E990930C
S1130130BC00089594EA9093BC009091BC0099236C
S1130140E4F796E49093BB0094E89093BC009091FC
S1130150BC009923E4F78093BB0084E88093BC003F
S11301608091BC008823E4F76093BB0084E880930B
S1130170BC008091BC008823E4F784E98093BC0030
S113018008950F931F93CF93DF93E8E6F0E0808107
S113019082608083ECE6F0E08081846080838EDF7F
S11301A065E08FE8C7DF6FE182E8C4DF63E081E8E0
S11301B0C1DF68E084E8BEDF81E090E074DF082FEF
S11301C010E082E090E06FDFC82FD0E0DC2FCC2776
S11301D0C02BD12B8C2F6BD38D2F69D36C2F80E93F
S11301E0A9DF6D2F81E9A6DF60E082E9A3DF60E08B
S11301F083E9A0DFDF91CF911F910F910895CF93F1
S1130200DF938DE85FDFC82FD0E08EE85BDF90E0FE
S1130210982F88278C0F9D1FDF91CF9108951F92EF
S11302200F920FB60F9211242F933F934F935F9326
S11302306F937F938F939F93AF93BF93EF93FF93AA
S113024080911C0190911D01019789F160911E011B
S113025070911F01809120019091210120E030E0F4
S113026040EC5FE3FCD4181654F480910C01909197
S11302700D01019690930D0180930C0118C06091BB
S11302801E0170911F01809120019091210120E0B5
S113029030E040EC5FE399D388234CF480910C0167
S11302A090910D01019790930D0180930C01FF91A2
S11302B0EF91BF91AF919F918F917F916F915F91DA
S11302C04F913F912F910F900FBE0F901F90189553
S11302D0CF93DF93CDB7DEB7C759D1400FB6F894AB
S11302E0DEBF0FBECDBFC2DEC0D2D1D24ADF78940A
S11302F020910E0130910F0180910C0190910D011C
S1130300A901481B590BCB56DE4F59834883C55965
S1130310D140BA01550F880B990BF1D36B017C01C5
S1130320209114013091150140911601509117014B
S1130330E7D28090000190900101A0900201B0905A
S11303400301A501940145D3CF56DE4F6883798319
S11303508A839B83C159D140A5019401C701B60189
S113036082D42091100130911101409112015091D9
S11303701301C7D24B015C0160931001709311010A
S11303808093120190931301209108013091090187
S113039040910A0150910B01C701B60164D42B01AD
S11303A03C01209118013091190140911A0150919A
S11303B01B01CF56DE4F688179818A819B81C159A7
S11303C0D14051D49B01AC01C301B2019AD22B019B
S11303D03C012091040130910501409106015091A6
S11303E00701C501B4013FD49B01AC01C301B201B3
S11303F088D24B015C0120E030E048EC52E42FD479
S1130400882344F00F2E812C912CF8ECAF2EF2E4CB
S1130410BF2EF02D20E030E048EC52ECC501B401D1
S1130420D4D2181644F00F2E812C912CF8ECAF2E58
S1130430F2ECBF2EF02D2AE037ED43EA5BE3C50171
S1130440B40111D420E030E040EC5FE35AD2E9D1AA
S1130450C0921401D0921501E0921601F092170196
S11304608FED9BEA0197F1F700C000008091220113
S1130470833671F1863621F0823609F0AAC114C0A0
S1130480CB56DE4FA881B981C559D140AB2B49F475
S113049080910E0190910F01049690930F01809327
S11304A00E011092220195C1CB56DE4FE881F981ED
S11304B0C559D140EF2B49F480910E0190910F0161
S11304C0049790930F0180930E011092220181C131
S11304D081E090E090931D0180931C01FE01319610
S11304E088ECDF011D928A95E9F7E45DFE4F84E60E
S11304F0DF01282F1D922A95E9F7E456F109DF015F
S11305001D928A95E9F7E12CF12C912C812C8CC059
S11305106DEC7CEC8CEC9FE384D101E010E024C012
S1130520F8013197EE0FFF1F21E030E02C0F3D1F43
S1130530E20FF31FC080D18062DE8C0D9D1D969565
S11305408795F801EE0FFF1F41E050E04C0F5D1F4F
S1130550E40FF51F918380838FE39CE90197F1F702
S113056000C000000F5F1F4F04361105CCF260E09D
S113057070E080EC9FE355D181E090E04EC0FC0137
S1130580EE0FFF1FA1E0B0E0AC0FBD1FEA0FFB1F91
S113059020813181FC013197EE0FFF1FEA0FFB1F11
S11305A04081518142175307C0F4FC013196EE0F8C
S11305B0FF1FEA0FFB1F608171816217730768F4E4
S11305C0E82DF0E0EE0FFF1F6DE271E06C0F7D1F70
S11305D0E60FF71F31832083839424173507E0F453
S11305E0FC013196EE0FFF1FA1E0B0E0AC0FBD1F80
S11305F0EA0FFB1F408151812417350768F4E92D68
S1130600F0E0EE0FFF1F49EC50E04C0F5D1FE40FCC
S1130610F51F3183208393940196843691050CF45D
S1130620AECF5FEFE51AF50A67E0E616F1040CF4C5
S11306306FCF612C712C412C512CB0E0A0E0CF562F
S1130640DE4F1882C159D140C956DE4F1882C759AE
S1130650D140212C312C38C0C301880F991FEDE201
S1130660F1E0EC0FFD1F8E0F9F1FFC01A080B180F5
S11306702A2D3B2D40E050E060E070E080E090E007
S1130680A42CB52CCB2EDA2ECF56DE4FE880C159E0
S1130690D140C956DE4FF880C759D140022D132DE1
S11306A0C3D3422E532EB42FA52FCF56DE4F6883CB
S11306B0C159D140C956DE4F7883C759D140282E3D
S11306C0392EFFEF6F1A7F0A882D90E0681679069D
S11306D01CF280E090E0612C712C0DC09C01220F73
S11306E0331F49EC50E04C0F5D1F240F351FF901F7
S11306F0608071800196292D30E08217930774F38E
S1130700A82CB12CC12CD12CE12CF12C00E010E050
S1130710242D352D4B2F5A2FCF56DE4F6881C159CA
S1130720D140C956DE4F7881C759D140822D932DCF
S113073013D3A22EB32EC42ED52EE62EF72E082FB9
S1130740192F692D70E0C301F1D2AB01242F352F8D
S113075040E050E060E070E080E090E065D301E0CC
S113076047D3022F132FD22E622F80E9E3DCE12E30
S1130770612F81E9DFDC60E082E9DCDC60E083E9B1
S1130780D9DC602F81E090E080DC612F82E090E092
S11307907CDC01E010E014C08D2D89D08E2D87D033
S11307A0F801EE0FFF1F21E030E02C0F3D1FE20F98
S11307B0F31FF18080817BD08F2D79D00F5F1F4F85
S11307C0043611054CF310921D0110921C01109275
S11307D022014A9B11C0CB56DE4F48815981C5592D
S11307E0D140452B49F480910E0190910F0104975B
S11307F090930F0180930E014B9B7ACDCB56DE4F25
S113080068817981C559D140672B09F071CD8091F8
S11308100E0190910F01049690930F0180930E01A5
S113082067CDCF92DF92EF92FF926B017C0120E0C3
S113083030E04AEF52E417D29B01AC0160E070E46F
S11308408CE195E45DD02DD170938900609388008C
S1130850C0921E01D0921F01E0922001F09221016A
S1130860FF90EF90DF90CF90089580EC809380000C
S113087083E18093810060E070E080EC9FE3D1DF4E
S113088084EC99E09093870080938600089587E62E
S11308908093C4001092C500E1ECF0E08081886D83
S11308A08083E2ECF0E080818660808308959091FB
S11308B0C00095FFFCCF95B1946095B98093C600B4
S11308C008951F920F920FB60F9211248F93809167
S11308D0C600809322018F910F900FBE0F901F903E
S11308E018951F920F920FB60F9211248F9385B112
S11308F08B7F85B98F910F900FBE0F901F90189525
S11309005058BB27AA270ED070C161D130F066D1F0
S113091020F031F49F3F11F41EF456C10EF4E0951B
S1130920E7FB4CC1E92F72D180F3BA176207730752
S11309308407950718F071F49EF58AC10EF4E095CA
S11309400B2EBA2FA02D0B01B90190010C01CA0185
S1130950A0011124FF27591B99F0593F50F4503E30
S113096068F11A16F040A22F232F342F4427585F22
S1130970F3CF469537952795A795F0405395C9F73A
S11309807EF41F16BA0B620B730B840BBAF09150F2
S1130990A1F0FF0FBB1F661F771F881FC2F70EC091
S11309A0BA0F621F731F841F48F487957795679564
S11309B0B795F7959E3F08F0B3CF9395880F08F04D
S11309C09927EE0F979587950895D4D008F481E080
S11309D008950CD00AC102D140F0F9D030F021F4CE
S11309E05F3F19F0EBC0511134C1EEC00FD198F341
S11309F09923C9F35523B1F3951B550BBB27AA279C
S1130A0062177307840738F09F5F5F4F220F331F0D
S1130A10441FAA1FA9F333D00E2E3AF0E0E830D0D9
S1130A2091505040E695001CCAF729D0FE2F27D0DC
S1130A30660F771F881FBB1F261737074807AB07AA
S1130A40B0E809F0BB0B802DBF01FF2793585F4F1F
S1130A502AF09E3F510568F0B1C0FBC05F3FECF344
S1130A60983EDCF3869577956795B795F7959F5FE4
S1130A70C9F7880F911D9695879597F90895E1E038
S1130A80660F771F881FBB1F621773078407BA0797
S1130A9020F0621B730B840BBA0BEE1F88F7E095F2
S1130AA00895BCD088F09F5790F0B92F9927B7517B
S1130AB0A0F0D1F0660F771F881F991F1AF0BA951E
S1130AC0C9F712C0B13081F0C3D0B1E00895C0C0FD
S1130AD0672F782F8827B85F39F0B93FCCF3869514
S1130AE077956795B395D9F73EF490958095709571
S1130AF061957F4F8F4F9F4F0895E89409C097FBEE
S1130B003EF490958095709561957F4F8F4F9F4FE0
S1130B109923A9F0F92F96E9BB279395F695879524
S1130B2077956795B795F111F8CFFAF4BB0F11F4E7
S1130B3060FF1BC06F5F7F4F8F4F9F4F16C088238E
S1130B4011F096E911C0772321F09EE8872F762FC4
S1130B5005C0662371F096E8862F70E060E02AF005
S1130B609A95660F771F881FDAF7880F96958795F1
S1130B7097F90895990F0008550FAA0BE0E8FEEFC6
S1130B8016161706E807F907C0F012161306E4074D
S1130B90F50798F0621B730B840B950B39F40A2646
S1130BA061F0232B242B252B21F408950A2609F424
S1130BB0A140A6958FEF811D811D089597F99F6728
S1130BC080E870E060E008959FEF80EC08950024D1
S1130BD00A941616170618060906089500240A949E
S1130BE012161306140605060895092E0394000C24
S1130BF011F4882352F0BB0F40F4BF2B11F460FFB3
S1130C0004C06F5F7F4F8F4F9F4F089557FD9058DB
S1130C10440F551F59F05F3F71F04795880F97FBBC
S1130C20991F61F09F3F79F0879508951216130676
S1130C301406551FF2CF4695F1DF08C016161706A5
S1130C401806991FF1CF86957105610508940895DA
S1130C50E894BB2766277727CB0197F908958ADFA5
S1130C6008F48FEF08950BD0C0CFB1DF28F0B6DFC2
S1130C7018F0952309F0A2CFA7CF1124EACFC6DF3D
S1130C80A0F3959FD1F3950F50E0551F629FF0019B
S1130C90729FBB27F00DB11D639FAA27F00DB11DF4
S1130CA0AA1F649F6627B00DA11D661F829F22277D
S1130CB0B00DA11D621F739FB00DA11D621F839F04
S1130CC0A00D611D221F749F3327A00D611D231FDA
S1130CD0849F600D211D822F762F6A2F11249F5728
S1130CE050408AF0E1F088234AF0EE0FFF1FBB1F4B
S1130CF0661F771F881F91505040A9F79E3F5105EA
S1130D0070F05CCFA6CF5F3FECF3983EDCF38695A2
S1130D1077956795B795F795E7959F5FC1F7FE2B94
S1130D20880F911D9695879597F90895AA1BBB1B6B
S1130D3051E107C0AA1FBB1FA617B70710F0A61BD7
S1130D40B70B881F991F5A95A9F780959095BC01F8
S1130D50CD010895689401C0E8948F929F92CF9337
S1130D60DF9305D0DF91CF919F908F9008958824D1
S1130D709924F401E401B0E41B2ED4019D158E04E2
S1130D809F04E007F10738F4FC014B01CA01B901E3
S1130D90AD019E011694220F331F441F551F661F79
S1130DA0771F881F991F881C991CEE1FFF1FCC1FDB
S1130DB0DD1FAA1FBB1F8A149B04EC05FD05CE058D
S1130DC0DF05A007B10748F08A189B08EC09FD0964
S1130DD0CE09DF09A00BB10B21601A94E1F62EF4C1
S1130DE09401AF01BE01CD01000C089597FB10F8EA
S1130DF0169400080F93083098F00850232F342FCE
S1130E00452F562F672F782F892F902DF4CF0594D7
S1130E10979587957795679557954795379527952E
S1130E200A95AAF70F9108952A0D3B1D4C1D5D1DCF
S1110E306E1D7F1D801F911F0895F894FFCF43
S10F0E3E0AD7233C000048420000704129
S9030000FC
