:1000000019C028C027C026C0D5C024C023C022C024
:1000100021C020C01FC01EC01DC01CC01BC01AC0F4
:1000200019C018C060C116C06EC114C013C012C080
:1000300011C010C011241FBECFEFD2E0DEBFCDBF74
:1000400021E0A0E0B1E001C01D92A130B207E1F7CC
:10005000C3D068C1D5CF84B1866084B985B18260D0
:1000600085B98AB18AB98AB180678AB98BB180674C
:100070008BB908958CE08093B800089594EA90932A
:10008000BC009091BC009923E4F796E49093BB00E8
:1000900094E89093BC009091BC009923E4F780937E
:1000A000BB0084E88093BC008091BC008823E4F707
:1000B00084EA8093BC008091BC008823E4F787E445
:1000C0008093BB0084E88093BC008091BC008823AF
:1000D000E4F784E88093BC008091BC008823E4F7B7
:1000E0008091BB0094E99093BC00089594EA9093AA
:1000F000BC009091BC009923E4F796E49093BB0078
:1001000094E89093BC009091BC009923E4F780930D
:10011000BB0084E88093BC008091BC008823E4F796
:100120006093BB0084E88093BC008091BC0088236E
:10013000E4F784E98093BC000895E8E6F0E080816C
:1001400082608083ECE6F0E080818460808392DFCF
:1001500065E08FE8CBDF63E081E8C8DF68E084E832
:10016000C5DF6EE580E9C2DF61E081E9BFDF60E005
:1001700082E9BCDF60E083E9B9DF68E083E8B6DFED
:1001800008950F931F93CF93DF938DE877DF082FA8
:1001900010E08EE873DFC82FD0E0DC2FCC27C00F33
:1001A000D11F8C2F96D08D2F94D0DF91CF911F919E
:1001B0000F9108951F920F920FB60F9211248F93F3
:1001C0009F939BB180E289278BB99F918F910F906C
:1001D0000FBE0F901F9018953EDF58D06AD0ADDF4C
:1001E00078948CEF98E09093890080938800C9DF21
:1001F0008FE39CE90197F1F700C0000080910001B6
:100200008336B9F0863619F0823659F509C08FEE7B
:1002100098E090938900809388001092000121C09B
:1002200083E299E090938900809388001092000106
:1002300018C08CEF98E0909389008093880010920A
:1002400000010FC08AEC98E09093890080938800A9
:100250009FEF21EE84E0915020408040E1F700C004
:1002600000004A99EFCF0FC083E299E09093890094
:10027000809388009FEF21EE84E0915020408040E1
:10028000E1F700C000004B99EFCFB1CF80EC809335
:10029000800083E18093810089E099E09093890058
:1002A0008093880084EC99E0909387008093860087
:1002B000089587E68093C4001092C500E1ECF0E059
:1002C0008081886D8083E2ECF0E0808186608083AD
:1002D00008959091C00095FFFCCF95B1946095B9B9
:1002E0008093C60008951F920F920FB60F921124AB
:1002F0008F938091C600809300018F910F900FBE65
:100300000F901F9018951F920F920FB60F92112405
:100310008F9385B18B7F85B98F910F900FBE0F9012
:080320001F901895F894FFCF1F
:00000001FF
