S01300006E504E505F4665656465722E737265630B
S113000019C033C032C031C0BAC22FC02EC02DC0F7
S11300102CC02BC02AC029C028C027C026C025C098
S113002024C023C093C421C0BEC41FC01EC01DC0B1
S11300301CC01BC011241FBECFEFD2E0DEBFCDBF5A
S113004011E0A0E0B1E0E8E2FFE002C005900D920B
S1130050AC30B107D9F721E0ACE0B1E001C01D92AA
S1130060A733B207E1F7E4D25DC7CACF84B1866093
S113007084B985B1826085B98AB18AB98AB1806749
S11300808AB98BB180678BB908952F923F924F92B2
S11300905F926F927F928F929F92AF92BF92CF9214
S11300A0DF92EF92FF920F931F93CF93DF93CDB71D
S11300B0DEB7C259D1400FB6F894DEBF0FBECDBF34
S11300C081E090E090930D0180930C01FE01319644
S11300D088ECDF011D928A95E9F7E853FF4F84E627
S11300E0DF01282F1D922A95E9F7EC59FF4FDF0114
S11300F01D928A95E9F7612C712C912C812C8CC06E
S11301006DEC7CEC8CEC9FE371D301E010E024C037
S1130110F8013197EE0FFF1F21E030E02C0F3D1F57
S1130120E20FF31F408051801AD2840D951D9695DD
S11301308795F801EE0FFF1F41E050E04C0F5D1F63
S1130140E40FF51F918380838FE39CE90197F1F716
S113015000C000000F5F1F4F04361105CCF260E0B1
S113016070E080EC9FE342D381E090E04EC0FC015C
S1130170EE0FFF1FA1E0B0E0AC0FBD1FEA0FFB1FA5
S113018020813181FC013197EE0FFF1FEA0FFB1F25
S11301904081518142175307C0F4FC013196EE0FA0
S11301A0FF1FEA0FFB1F608171816217730768F4F8
S11301B0E82DF0E0EE0FFF1F69EC70E06C0F7D1F7F
S11301C0E60FF71F31832083839424173507E0F467
S11301D0FC013196EE0FFF1FA1E0B0E0AC0FBD1F94
S11301E0EA0FFB1F408151812417350768F4E92D7C
S11301F0F0E0EE0FFF1F4DE251E04C0F5D1FE40FE6
S1130200F51F3183208393940196843691050CF471
S1130210AECF5FEF651A750A67E0661671040CF4D9
S11302206FCF612C712C412C512CB0E0A0E0CF5643
S1130230DE4F1882C159D140CE56DE4F1882C259C2
S1130240D140212C312C38C0C301880F991FE9EC0F
S1130250F0E0EC0FFD1F8E0F9F1FFC01A080B1800A
S11302602A2D3B2D40E050E060E070E080E090E01B
S1130270A42CB52CCB2EDA2ECF56DE4FE880C159F4
S1130280D140CE56DE4FF880C259D140022D132DF5
S113029040D6422E532EB42FA52FCF56DE4F68835F
S11302A0C159D140CE56DE4F7883C259D140282E51
S11302B0392EFFEF6F1A7F0A882D90E068167906B1
S11302C01CF280E090E0612C712C0DC09C01220F87
S11302D0331F4DE251E04C0F5D1F240F351FF90110
S11302E0608071800196292D30E08217930774F3A2
S11302F0A82CB12CC12CD12CE12CF12C00E010E065
S1130300242D352D4B2F5A2FCF56DE4F6881C159DE
S1130310D140CE56DE4F7881C259D140822D932DE3
S113032090D5A22EB32EC42ED52EE62EF72E082F4E
S1130330192F692D70E0C3015BD5AB01242F352F34
S113034040E050E060E070E080E090E0E2D501E061
S1130350C4D5022F132FD22E622F80E99FD0E12E15
S1130360612F81E99BD060E082E998D060E083E965
S113037095D0602F81E090E03CD0612F82E090E046
S113038038D001E010E014C08D2D76D28E2D74D2B9
S1130390F801EE0FFF1F21E030E02C0F3D1FE20FAC
S11303A0F31FF180808168D28F2D66D20F5F1F4FBB
S11303B0043611054CF310920D0110920C01CE5627
S11303C0DE4F0FB6F894DEBF0FBECDBFDF91CF91E5
S11303D01F910F91FF90EF90DF90CF90BF90AF905F
S11303E09F908F907F906F905F904F903F902F9051
S11303F00895F894F999FECF92BD81BD60BD8FB385
S113040084608FBB8FB382608FBB78940895F89417
S1130410F999FECF92BD81BD8FB381608FBB789473
S113042080B508958CE08093B800089594EA909381
S1130430BC009091BC009923E4F796E49093BB0030
S113044094E89093BC009091BC009923E4F78093C6
S1130450BB0084E88093BC008091BC008823E4F74F
S113046084EA8093BC008091BC008823E4F787E48D
S11304708093BB0084E88093BC008091BC008823F7
S1130480E4F784E88093BC008091BC008823E4F7FF
S11304908091BB0094E99093BC00089594EA9093F2
S11304A0BC009091BC009923E4F796E49093BB00C0
S11304B094E89093BC009091BC009923E4F7809356
S11304C0BB0084E88093BC008091BC008823E4F7DF
S11304D06093BB0084E88093BC008091BC008823B7
S11304E0E4F784E98093BC0008950F931F93CF939E
S11304F0DF93E8E6F0E0808182608083ECE6F0E060
S11305008081846080838EDF65E08FE8C7DF6FE1E0
S113051082E8C4DF63E081E8C1DF68E084E8BEDF2D
S113052081E090E074DF082F10E082E090E06FDF5C
S1130530C82FD0E0DC2FCC27C02BD12B6C2F80E927
S1130540ADDF6D2F81E9AADF60E082E9A7DF60E01B
S113055083E9A4DFDF91CF911F910F910895CF9389
S1130560DF938DE863DFC82FD0E08EE85FDF90E093
S1130570982F88278C0F9D1FDF91CF9108951F928C
S11305800F920FB60F9211242F933F934F935F93C3
S11305906F937F938F939F93AF93BF93EF93FF9347
S11305A080910C0190910D01019789F160911E01D8
S11305B070911F01809120019091210120E030E091
S11305C040EC5FE3AED3181654F480910E01909181
S11305D00F01019690930F0180930E0118C0609152
S11305E01E0170911F01809120019091210120E052
S11305F030E040EC5FE34BD288234CF480910E0151
S113060090910F01019790930F0180930E01FF9138
S1130610EF91BF91AF919F918F917F916F915F9176
S11306204F913F912F910F900FBE0F901F901895EF
S1130630CF93DF9300D000D000D0CDB7DEB716DD66
S1130640F9D00AD152DF7894209110013091110130
S113065080910E0190910F01281B390B3E832D834D
S1130660B901330F880B990BACD26B017C0120913B
S11306701601309117014091180150911901A2D12E
S11306808090000190900101A0900201B0900301BC
S1130690A501940100D22B013C01A5019401C701DD
S11306A0B60143D3209112013091130140911401FA
S11306B05091150188D14B015C0160931201709334
S11306C01301809314019093150120910801309136
S11306D0090140910A0150910B01C701B60125D3CC
S11306E069837A838B839C8320911A0130911B0147
S11306F040911C0150911D01C301B20116D39B010D
S1130700AC0169817A818B819C815DD12B013C0193
S11307102091040130910501409106015091070197
S1130720C501B40102D39B01AC01C301B2014BD199
S11307304B015C0120E030E048EC52E4F2D2882323
S113074044F00F2E812C912CF8ECAF2EF2E4BF2E46
S1130750F02D20E030E048EC52ECC501B40197D113
S1130760181644F00F2E812C912CF8ECAF2EF2ECDD
S1130770BF2EF02D2AE037ED43EA5BE3C501B40157
S1130780D4D220E030E040EC5FE31DD12FD0C09202
S11307901601D0921701E0921801F09219018FED21
S11307A09BEA0197F1F700C0000070D04A9B0DC08E
S11307B02D813E81232B49F48091100190911101E8
S11307C0049790931101809310014B9B3DCF8D8131
S11307D09E81892B09F038CF8091100190911101ED
S11307E0049690931101809310012ECFCF92DF9243
S11307F0EF92FF926B017C0120E030E04AEF52E47B
S113080094D29B01AC0160E070E48CE195E4DAD011
S1130810AAD17093890060938800C0921E01D0927F
S11308201F01E0922001F0922101FF90EF90DF90F0
S1130830CF90089580EC8093800083E180938100C1
S113084060E070E080EC9FE3D1DF84EC99E090936A
S1130850870080938600089587E68093C4001092F1
S1130860C500E1ECF0E08081886D8083E2ECF0E08B
S113087080818660808308959091C00095FFFCCFAD
S113088095B1946095B98093C60008958091230131
S1130890813009F03EC09091240180912201981387
S11308A054C080912501813019F0823019F01FC0A5
S11308B0ECDB1DC080912601813069F42091270171
S11308C08091100190911101821B91099093110163
S11308D0809310010CC02091270180911001909108
S11308E01101820F911D909311018093100120E05A
S11308F030E006C0F901ED5DFE4F10822F5F3F4FDF
S11309008091220190E028173907A4F31092220164
S11309100895809123018130C1F090912401809148
S11309202201981312C007C0F901ED5DFE4F108239
S11309302F5F3F4F02C020E030E08091220190E021
S1130940281739078CF31092220108951F920F92F1
S11309500FB60F9211245F936F937F938F939F939E
S1130960AF93BF93EF93FF93E0912201F0E0809166
S1130970C600ED5DFE4F80838091220190E00196D8
S113098064E170E049D280932201FF91EF91BF911D
S1130990AF919F918F917F916F915F910F900FBE57
S11309A00F901F9018951F920F920FB60F9211245B
S11309B08F9385B18B7F85B98F910F900FBE0F9068
S11309C01F9018955058BB27AA270ED070C161D12B
S11309D030F066D120F031F49F3F11F41EF456C17B
S11309E00EF4E095E7FB4CC1E92F72D180F3BA17FE
S11309F0620773078407950718F071F49EF58AC19E
S1130A000EF4E0950B2EBA2FA02D0B01B901900125
S1130A100C01CA01A0011124FF27591B99F0593F69
S1130A2050F4503E68F11A16F040A22F232F342FB1
S1130A304427585FF3CF469537952795A795F040FF
S1130A405395C9F77EF41F16BA0B620B730B840B14
S1130A50BAF09150A1F0FF0FBB1F661F771F881FCC
S1130A60C2F70EC0BA0F621F731F841F48F4879524
S1130A7077956795B795F7959E3F08F0B3CF939513
S1130A80880F08F09927EE0F979587950895D4D08D
S1130A9008F481E008950CD00AC102D140F0F9D0E5
S1130AA030F021F45F3F19F0EBC0511134C1EEC0B6
S1130AB00FD198F39923C9F35523B1F3951B550B23
S1130AC0BB27AA2762177307840738F09F5F5F4F1D
S1130AD0220F331F441FAA1FA9F333D00E2E3AF05E
S1130AE0E0E830D091505040E695001CCAF729D078
S1130AF0FE2F27D0660F771F881FBB1F26173707C7
S1130B004807AB07B0E809F0BB0B802DBF01FF27F6
S1130B1093585F4F2AF09E3F510568F0B1C0FBC067
S1130B205F3FECF3983EDCF3869577956795B79530
S1130B30F7959F5FC9F7880F911D9695879597F94B
S1130B400895E1E0660F771F881FBB1F62177307C4
S1130B508407BA0720F0621B730B840BBA0BEE1FD9
S1130B6088F7E0950895BCD088F09F5790F0B92F8E
S1130B709927B751A0F0D1F0660F771F881F991FEE
S1130B801AF0BA95C9F712C0B13081F0C3D0B1E000
S1130B900895C0C0672F782F8827B85F39F0B93F10
S1130BA0CCF3869577956795B395D9F73EF49095F0
S1130BB08095709561957F4F8F4F9F4F0895E8946E
S1130BC009C097FB3EF490958095709561957F4F91
S1130BD08F4F9F4F9923A9F0F92F96E9BB2793953F
S1130BE0F695879577956795B795F111F8CFFAF44F
S1130BF0BB0F11F460FF1BC06F5F7F4F8F4F9F4F80
S1130C0016C0882311F096E911C0772321F09EE8DD
S1130C10872F762F05C0662371F096E8862F70E043
S1130C2060E02AF09A95660F771F881FDAF7880F1D
S1130C309695879597F90895990F0008550FAA0B73
S1130C40E0E8FEEF16161706E807F907C0F01216DB
S1130C501306E407F50798F0621B730B840B950BDE
S1130C6039F40A2661F0232B242B252B21F4089533
S1130C700A2609F4A140A6958FEF811D811D0895D0
S1130C8097F99F6780E870E060E008959FEF80EC3B
S1130C90089500240A9416161706180609060895DE
S1130CA000240A9412161306140605060895092E44
S1130CB00394000C11F4882352F0BB0F40F4BF2BB3
S1130CC011F460FF04C06F5F7F4F8F4F9F4F0895F3
S1130CD057FD9058440F551F59F05F3F71F04795E9
S1130CE0880F97FB991F61F09F3F79F087950895CE
S1130CF0121613061406551FF2CF4695F1DF08C0ED
S1130D00161617061806991FF1CF86957105610509
S1130D1008940895E894BB2766277727CB0197F9B1
S1130D2008958ADF08F48FEF08950BD0C0CFB1DFA8
S1130D3028F0B6DF18F0952309F0A2CFA7CF11242D
S1130D40EACFC6DFA0F3959FD1F3950F50E0551F6E
S1130D50629FF001729FBB27F00DB11D639FAA270C
S1130D60F00DB11DAA1F649F6627B00DA11D661F5B
S1130D70829F2227B00DA11D621F739FB00DA11D7C
S1130D80621F839FA00D611D221F749F3327A00D36
S1130D90611D231F849F600D211D822F762F6A2FD2
S1130DA011249F5750408AF0E1F088234AF0EE0F57
S1130DB0FF1FBB1F661F771F881F91505040A9F764
S1130DC09E3F510570F05CCFA6CF5F3FECF3983E99
S1130DD0DCF3869577956795B795F795E7959F5FCB
S1130DE0C1F7FE2B880F911D9695879597F9089565
S1130DF0AA1BBB1B51E107C0AA1FBB1FA617B7073D
S1130E0010F0A61BB70B881F991F5A95A9F7809558
S1130E109095BC01CD01089597FB072E16F400941C
S1130E2006D077FD08D0E4DF07FC05D03EF49095AA
S1130E3081959F4F0895709561957F4F08956894AB
S1130E4001C0E8948F929F92CF93DF9305D0DF91F6
S1130E50CF919F908F90089588249924F401E40100
S1130E60B0E41B2ED4019D158E049F04E007F10706
S1130E7038F4FC014B01CA01B901AD019E0116947D
S1130E80220F331F441F551F661F771F881F991F8A
S1130E90881C991CEE1FFF1FCC1FDD1FAA1FBB1F40
S1130EA08A149B04EC05FD05CE05DF05A007B107F8
S1130EB048F08A189B08EC09FD09CE09DF09A00B4C
S1130EC0B10B21601A94E1F62EF49401AF01BE0136
S1130ED0CD01000C089597FB10F8169400080F93A9
S1130EE0083098F00850232F342F452F562F672FA2
S1130EF0782F892F902DF4CF059497958795779522
S1130F00679557954795379527950A95AAF70F91B1
S1130F1008952A0D3B1D4C1D5D1D6E1D7F1D801FF8
S10B0F20911F0895F894FFCF1E
S10F0F280AD7233C0000204200002041B6
S9030000FC
